:020000040000fa
:080000000001040000000000f3
:020000040000fa
:040008003a030000b7
:020000040000fa
:04000c003a030000b3
:020000040000fa
:040010003a030000af
:020000040000fa
:040014003a030000ab
:020000040000fa
:040018003a030000a7
:020000040000fa
:04001c003a030000a3
:020000040000fa
:040020003a0300009f
:020000040000fa
:040024003a0300009b
:020000040000fa
:040028003a03000097
:020000040000fa
:04002c003a03000093
:020000040000fa
:040030003a0300008f
:020000040000fa
:04003400cc010000fb
:020000040000fa
:040038003a03000087
:020000040000fa
:04003c003a03000083
:020000040000fa
:040040003a0300007f
:020000040000fa
:040044003a0300007b
:020000040000fa
:040048003a03000077
:020000040000fa
:04004c00f2010000bd
:020000040000fa
:040050003a0300006f
:020000040000fa
:040054003a0300006b
:020000040000fa
:040058003a03000067
:020000040000fa
:04005c003a03000063
:020000040000fa
:040060003a0300005f
:020000040000fa
:040064003a0300005b
:020000040000fa
:040068003a03000057
:020000040000fa
:04006c003a03000053
:020000040000fa
:040070003a0300004f
:020000040000fa
:040074003a0300004b
:020000040000fa
:040078003a03000047
:020000040000fa
:04007c003a03000043
:020000040000fa
:040080003a0300003f
:020000040000fa
:040084003a0300003b
:020000040000fa
:040088000e02000064
:020000040000fa
:04008c003a03000033
:020000040000fa
:040090003a0300002f
:020000040000fa
:040094003a0300002b
:020000040000fa
:040098003a03000027
:020000040000fa
:04009c003a03000023
:020000040000fa
:0400a0003a0300001f
:020000040000fa
:0400a4003a0300001b
:020000040000fa
:0400a8003a03000017
:020000040000fa
:0400ac003a03000013
:020000040000fa
:0400b0003a0300000f
:020000040000fa
:0400b4003a0300000b
:020000040000fa
:0400b8003a03000007
:020000040000fa
:0400bc003a03000003
:020000040000fa
:0400c0003a030000ff
:020000040000fa
:0400c4003a030000fb
:020000040000fa
:0400c8003a030000f7
:020000040000fa
:0400cc003a030000f3
:020000040000fa
:0400d0003a030000ef
:020000040000fa
:0400d4003a030000eb
:020000040000fa
:0400d8003a030000e7
:020000040000fa
:040108003a030000b6
:020000040000fa
:04010c003a030000b2
:020000040000fa
:040110003a030000ae
:020000040000fa
:040114003a030000aa
:020000040000fa
:040118003a030000a6
:020000040000fa
:04011c003a030000a2
:020000040000fa
:040120003a0300009e
:020000040000fa
:040124003a0300009a
:020000040000fa
:040128003a03000096
:020000040000fa
:04012c003a03000092
:020000040000fa
:040130003a0300008e
:020000040000fa
:04013400cc010000fa
:020000040000fa
:040138003a03000086
:020000040000fa
:04013c003a03000082
:020000040000fa
:040140003a0300007e
:020000040000fa
:040144003a0300007a
:020000040000fa
:040148003a03000076
:020000040000fa
:04014c00f2010000bc
:020000040000fa
:040150003a0300006e
:020000040000fa
:040154003a0300006a
:020000040000fa
:040158003a03000066
:020000040000fa
:04015c003a03000062
:020000040000fa
:040160003a0300005e
:020000040000fa
:040164003a0300005a
:020000040000fa
:040168003a03000056
:020000040000fa
:04016c003a03000052
:020000040000fa
:040170003a0300004e
:020000040000fa
:040174003a0300004a
:020000040000fa
:040178003a03000046
:020000040000fa
:04017c003a03000042
:020000040000fa
:040180003a0300003e
:020000040000fa
:040184003a0300003a
:020000040000fa
:040188000e02000063
:020000040000fa
:04018c003a03000032
:020000040000fa
:040190003a0300002e
:020000040000fa
:040194003a0300002a
:020000040000fa
:040198003a03000026
:020000040000fa
:04019c003a03000022
:020000040000fa
:0401a0003a0300001e
:020000040000fa
:0401a4003a0300001a
:020000040000fa
:0401a8003a03000016
:020000040000fa
:0401ac003a03000012
:020000040000fa
:0401b0003a0300000e
:020000040000fa
:0401b4003a0300000a
:020000040000fa
:0401b8003a03000006
:020000040000fa
:0401bc003a03000002
:020000040000fa
:0401c0003a030000fe
:020000040000fa
:0401c4003a030000fa
:020000040000fa
:0401c8003a030000f6
:020000040000fa
:0401cc003a030000f2
:020000040000fa
:0401d0003a030000ee
:020000040000fa
:0401d4003a030000ea
:020000040000fa
:0401d8003a030000e6
:020000040000fa
:10020000efc420000eff20000e0188000000000057
:10021000000020000000e000020032000001200089
:100220002002880014000700140107000000e0000d
:1002300003003a00a0a226000100200002003700bf
:100240000000200001002000810f7000010032003a
:1002500014000700000020000000e000020032004f
:100260000000020000000000d86d02000000000045
:100270000040da000000fe004440a900602822008f
:100280000000e0000300320000002000a001880010
:100290004440a800000006008a1f78008b1f7800e9
:1002a0000000060091018800800478000000eb0047
:1002b0001a003700e284440032a0b4009905ba0065
:1002c000e284440032a0b4009906ba00e2844400fb
:1002d00032a0b4000006eb00476fde00fd07b2005d
:1002e000636ce10003003a00ebff07000000eb0045
:1002f0000a003700606ce10004003a00005deb008a
:100300008b05e900fdff3e00040037006168e10055
:10031000010032000086eb000b00070019c7ba008d
:100320001905ba000e04e00003003a000a00e000dc
:10033000e0ff3a0000000600fe07b2009e018800c0
:100340008a047800f5ff3700395dba008b05e900b3
:100350000c003200295dba008b05e900080032006c
:100360000c00e00003003a00e284440032a0b40034
:10037000f5ff370019ddba008b05e900faff3a00f6
:100380008904e800e184440032a0b40000000600c3
:1003900000000000000000003600f800809fbe0052
:1003a000829fbe00849fbe00869fbe003400f8007e
:1003b00000002000a00188000000fa008460a9006d
:1003c000b23307000080fa003400f9004f03be008a
:1003d0004f02be004f01be004f00be003600f900c4
:1003e00000400600801f78003400f8000000200064
:1003f000a00188000200fa008520a90000c3b30014
:10040000004f780090108000004f78000080fa00c4
:100410003400f9004f00780000400600809fbe00c5
:10042000821f78003400f80000002000a00188003e
:100430000400fa0000c3b300204798008700a90019
:10044000e010800020479800a3cbbf00a2ebb700cc
:10045000a4cbbf00a3ebb700a5cbbf00a4ebb700b4
:10046000a6cbbf00a5ebb700a7cbbf00a6ebb7009c
:10047000a8cbbf00a7ebb700e010800000407800d9
:10048000a8ebb70031ba20009140780020c6b30035
:1004900080cf50001b003a00a4cbbf00e14f5000ba
:1004a00018003a00504180000000e80050418800e8
:1004b000a5cbbf00e24f500003003a00a02bef0095
:1004c000b42bef000f00370051ba200091407800a4
:1004d00010c2b30080cf500004003a00100020008a
:1004e000005d8800b42bef0006003700a5cbbf00ed
:1004f000e34f500003003a0020002000005d880018
:10050000b42bef00005d8000e10f50001c003200b2
:10051000e10f500003003900e20f50002f003200bd
:1005200045003700a25d800081ba2000914078002c
:100530002083200000004100014878000000eb000b
:10054000000f7800b229ef00a05d80000000e800f5
:10055000a05d8800a05d8000fc0f500039003a00cb
:10056000604180000000e800604188001000200029
:10057000904d880030002000000f780036003700d2
:10058000a25d800081ba200091407800208b20007d
:10059000000041000148780010002000000f7800a2
:1005a000b429ef00a05d80000000e800a05d880095
:1005b000a05d8000f40f500024003a0070418000dc
:1005c0000000e8007041880010002000a04d880065
:1005d00030002000000f78001f003700a25d80006f
:1005e00081ba200091407800209320000000410053
:1005f0000148780020002000000f7800b629ef00a5
:10060000a05d80000000e800a05d8800a05d800083
:10061000f00f50000f003a00804180000000e80019
:100620008041880010002000b04d8800300020007c
:10063000000f78000800370030002000000f78001d
:100640000500370000000000030037000000000034
:1006500001003700000000009e007800015d880066
:100660000080fa003400f9004f0178004f00be000e
:10067000004006000040da000000fe000000050017
:10068000320020005e00370003f0a200889fbe0009
:100690008a9fbe008c1f78008b02070092023300f5
:1006a0006450e1004f0032006420e100520032004b
:1006b00003826c0007003b000905d0000306d00050
:1006c000820f54000c065d00020039000200320067
:1006d00089017800030678008582550004003d00fa
:1006e0000003fd008103fd008502ea008b854200c6
:1006f000840f720002003b0060001000e0801800d0
:100700006011b8000005eb007a28e1000a0039000a
:1007100006007800c75ddd00f707b200878075002e
:100720002d003700828171000a01780061056000a8
:100730008180d1000080d3008502e900f9ff3b00f1
:10074000060440008784480002003b006004140057
:10075000e0841c000988a300070032008a81710030
:1007600082817100610164008904d1000884d30092
:100770008b05e800170037000978a30013003a0042
:100780000b00e000130034008b05e900080444006e
:1007900089844c000a4474000978a3000d003a00d3
:1007a0000b00e000070034008b05e900080444005a
:1007b00089844c0001003a000b0020000978a30056
:1007c000f7ff32000001eb00020037008281710068
:1007d0000a017800010207000cf0a70001f0a00058
:1007e0004a0237006420e10002003a00838f6c0067
:1007f0004a0233000801be000200be004302370077
:10080000889fbe008a9fbe008c9fbe0002067800b3
:1008100001f0a7000cf0a0000004be0015020700c4
:100820000800be006420e1000700390002003a0021
:10083000f1ff2700f0ff2f000160a000120220004e
:10084000b25d88005100370009f0a1000800be0029
:100850000200200003f8230048010700f4ff3c00d9
:100860000800be0002002000039823004101070099
:100870000800be00300035000200200003f0230015
:100880003e01070005003c000800be000801be0054
:10089000250207000005be000e0037000c10a20064
:1008a0000000200001f823000801be0076ff0700c9
:1008b0000200200003f023001b0207000005be0019
:1008c0009b0307000200200003002c001602070013
:1008d0000004be000a00be00b2d02800130b2c009a
:1008e0006aff07000a01be000f020700020f250081
:1008f000330b240065ff0700809fbe000a00be0086
:100900005206220013f02b0007020700b2662100f6
:10091000f3f623005dff07000a01be000202070094
:100920004f01be00a30007000801be00fe01070042
:100930000801be0055ff07000c00a70007003700a4
:10094000b2fd200093fc23000c10a7004fff07000e
:100950000cf0a70001f0a2000c0037000cf0a7007b
:100960000200370001f0a20004003700b2fd2000b1
:10097000930424000c10a60003003700b2fd2000f1
:1009800093fc23000c10a70040ff07004f06be0099
:100990004f05be004f04be00000006000001eb0042
:1009a00097ff3700889fbe008a9fbe008c1f78008b
:1009b000c50107001002200002003b00b05d880066
:1009c000c90137008a0062006408e10002003a00b1
:1009d000b05d8800d10137006108e100fcff320002
:1009e0000800be00030478007200070001f0a100b7
:1009f0000900070008f0a600040037000001be004f
:100a000091042400b0fd20001fff070009f0a7009b
:100a100001f0a200bd013700889fbe008a9fbe0082
:100a20008c9fbe000004be00920107000800be00bb
:100a3000890678006420e1000800390004003200d3
:100a40000160a00012022000b25d88005300370050
:100a500091fc2300b0fd20004e0037000006eb00a3
:100a600009f0a10003f82300020020000800be00e6
:100a7000c00007000600340001f823000000200039
:100a80000801be004b0007000004be002c0020003f
:100a90000800be0093e82300320a2300b5000700d7
:100aa000120034000801be00d1fd2300703d2b0070
:100ab000f6fe07000005be00b3f32300f27a26001d
:100ac0000800be009801070003f823000200200080
:100ad000edfe07000801be00ecfe07000a01be00a3
:100ae000340007000004be000c06e8000800be0049
:100af00001f0a10002002000039823009d000700e0
:100b00000800be00160035000801be00860107007f
:100b10000005be0032cd2c0043fb2300dbfe0700a6
:100b2000809fbe001269280003d52b000a00be007a
:100b30007d010700620f210013ef2b00d3fe070099
:100b40000a01be00780107004f01be00190007002e
:100b50000801be00740107000801be00cbfe0700bb
:100b60000c00e0000b0032000c10a70001f0a20006
:100b7000b2fd200093fc23006260e100040032001b
:100b800022a9200063f023000c10a70063f82300c3
:100b9000befe07000df0a70001f0a2004f06be0048
:100ba0004f05be004f04be00000006000081eb00b0
:100bb00074023700889fbe008a9fbe008c1f780099
:100bc000410107004801330003866c006450e100d6
:100bd0002e0032006420e100330032006150e10059
:100be0002f0032006120e100310032008585550080
:100bf000eb07b000090020000804200005003700c2
:100c00000804440089844c000a00310006034300b4
:100c100087834b000001530081815b00f8ff3300a4
:100c20000203be000800a0000804440089844c00b0
:100c3000f6ff3900c639dd00830173000100320080
:100c4000130020008904d1000884d3000998a30070
:100c5000050032000800a7000300a0008904d100ad
:100c60000884d3008b05e8008904d1000884d300f0
:100c70000001eb000281d200d800070001f0a100c2
:100c80000cf0a70001f0a000200137006420e10073
:100c9000220132000801be000200be00f7ff37004b
:100ca0006120e1001d0132006000b800f3ff370051
:100cb0000000200001f82700f0ff3700839f680044
:100cc0000100e00002003d0060001000e08018001c
:100cd0000300e00002003d0060011100e081190006
:100ce000500307004f00e00002003b0060001000ce
:100cf000e08018000000060081037800dd00070096
:100d00000001be006000b8000478a30013003a00a0
:100d10006220e10015003e000d0039008301d10082
:100d20000281d3008180d3008301d1000281d300ee
:100d30008180d3008301d1000281d3008180d30060
:100d40000538b000c42add00f300b20083817200d0
:100d500007f0a70003f0a00000000600f3ff270043
:100d6000f2ff2f006110b900fbff370003ff2700df
:100d7000f7ff37001400200013043700f4ff2f00a2
:100d8000110437000003be00ba0007006011b8006c
:100d90000470a70007f0a1006509b1001b00320034
:100da00012003500860220000628e1000800350008
:100db000f3ff2700f2ff2f006110b9000700e000e9
:100dc00018003b00030028006000b8000200050086
:100dd00000004000818048000201490083814900f1
:100de0008502e900faff3a0008003700f88f420058
:100df00002003c008000eb00000005008100d100f3
:100e00000080d3008502e800fcff3a000700e00004
:100e100004003b0060001000e08018006001190031
:100e2000e0811900000006000001be0091000700eb
:100e30000470a70003f0a1006509b100160032009c
:100e40000d0035006828e10006003500f0ff2f0096
:100e5000f1ff27000300e00013003b000100280021
:100e60000000050000004000818048008502e90084
:100e7000fcff3a0008003700f88f420002003c00f7
:100e80008000eb00000005008100d1000080d3004d
:100e90008502e800fcff3a000300e00002003b008e
:100ea00060001000e080180000000600881f780035
:100eb000030478000300e00007003d00600010001c
:100ec000e080180060011900e081190002003b0079
:100ed00001f02d00030037000700070008f0a7000d
:100ee00001f0a0004f047800000006004f89de00ea
:100ef00082017800edff3700889fbe008a9fbe0008
:100f00000082700004027100048271002600320029
:100f10000004be000200be006011b8006b09200092
:100f2000950220000182cf000a0039000541b1007e
:100f30000082cf00070039000541b1000982cf00cf
:100f4000040039000541b1000882cf0001003900da
:100f50000541b10005425200120032000a003b0078
:100f600082817100610164008100d1000080d300a2
:100f70008984d3000884d3008b05e8000442e8008c
:100f8000f7ff3a00070037000804440089844c004a
:100f900000004800818048008b05e9000442e90018
:100fa000f9ff3a000d0007004f05be004f04be00d8
:100fb000000006006011b800cfff37000001eb0011
:100fc0005a030700040032000200200003f8230047
:100fd00001f0a700acfd0700000006008100200022
:100fe000618055000b003d000b00200061fe2f00ca
:100ff0000100e1001d003400828171006101640084
:101000008904d1000884d3000000e800faff3a0008
:1010100071002000610064000300700002006000a5
:101020000900320061044400e0844c000988a500f6
:10103000050032008b05e8006808e10002003a0074
:101040008904d1000884d300f20f20000258e10087
:1010500005003d00c75ddd00f907b200898075001d
:1010600008007800000006000bf827008b007800cd
:1010700000000500c70ade00f107b200f50fb2005c
:1010800008003200e1cf4200020032000170a000ef
:1010900024000500810f70000100320004080500e3
:1010a00044000500810f700002003a0014000500a2
:1010b0008502e9000000400081c04800fcff3b00c1
:1010c0000170a000240005000004be00e9ff070035
:1010d0000003be000405be000200be00e5ff0700dd
:1010e000844f7500000006000200be006450e1005d
:1010f000050036006420e100020036000968a30004
:1011000001003a000800be000160a0004f06780010
:101110004f05be004f04be0000000600f0ff2f0088
:10112000f1ff2700f9ff3700889fbe008a9fbe00ad
:101130008c1f7800e4ff0700ebff330003866c0090
:101140006450e100240032006420e10027003200f6
:101150006150e100220032006120e10021003200f4
:101160008b854200eb07b1000134b800003ab800ab
:101170000804420089844a00013ab8000030b800ef
:101180008880400009014a0004003300000040004c
:1011900081804800020149008b05e900c909dd0092
:1011a000830170000100320013002000c814de002b
:1011b0004814dd004709de001200b200c808de0056
:1011c0000884700085ff070001f0a1000cf0a70063
:1011d00001f0a000cdff37006120e100cfff320019
:1011e0000801be000200be00f7ff37006150e100b9
:1011f000fcff3a00c9ff37000c00fa00889fbe00d0
:101200008a9fbe008c9fbe00afff07000206be0093
:10121000840578000200be0002002000c30207001f
:1012200005003a008b02b30012002000bf02070045
:1012300001003a00f8856d000c01be00c6000700f1
:101240000800be009b0032000b08a3009e003a007d
:101250000df0a7000be0a00009f0a7000bf0a00024
:1012600009f0a1000801be00bb0007000bf0a600ba
:101270009500320001003c000bd0a0008acf750021
:10128000b20033006000b8006250e10099003900fc
:10129000a1003e000b28a300a2003a000bf8a30017
:1012a000060032000b58a300a70032000801be0060
:1012b000a90007000800be00940032000800be002c
:1012c000eb0107000004be00050578000bf0a70045
:1012d0000b30a6000bf0a1005b079800324f2000f6
:1012e00053f32300a3fe070005003d000800be00e5
:1012f00012002000200307000004be000a05e900d8
:101300004a0798006150b900f8fe0700008fbe0040
:101310000c01be0084ff0700c3fe070030079800e1
:101320000100e00002003d0060001000e0801800b5
:10133000f2ff2700820f5000e08f580064003e004b
:101340000c00be00b8fe070020079800f20720003e
:10135000820f5000e08f580005003c0012f82f006b
:10136000f3ff2f00820f5000838f580009003d00cb
:101370000a00e0000300320001003c000201ea0024
:10138000020578006000b800200798003a0798002e
:10139000190037003e0090006100b900d3fe07003d
:1013a000809fbe000c00be004109dd004811de0038
:1013b0007208b1005d0207000005be001e01be00fc
:1013c00059ff07004f01be00affc0700809fbe0021
:1013d0000c00be000a01be00abfc07001e01be00ef
:1013e00051ff07004f01be00a8fc07008221270023
:1013f00013f323004cff07000005be002e009000f1
:101400006100b900b9fe070001f0a2000c01be00a6
:101410009efc07000006be000800be00f8020700a0
:101420000c01be0040ff07000a01be0097fc070048
:10143000809fbe004a0007002e0590000af0a7001a
:101440000a05ea00050037000800be000801be00da
:1014500035ff07000004be000c00be000801be00fe
:101460000a00a70030ff07000006be000a05d100f1
:10147000f5ff3a005e01900002e0a600030037008d
:101480000001be0036000700cafd07000004be00d0
:101490004f00be00c30107000801be0022ff070085
:1014a0003e019000b4020700de0590000bf0a7009b
:1014b00001f0a2004f06be004f05be004f04be0063
:1014c0000080fa000000060025000700f9ff370041
:1014d000270007006000b8000bd0a7000bc0a000d9
:1014e0000be0a7000bc0a2000bc0a70001f827006b
:1014f000f0ff37000df8a300020032001e000700c5
:10150000190007000bf8a300eaff32000b30a70018
:1015100001f0a200e7ff37000df8a300f9ff3a0041
:10152000f7ff37000801be000b000700e6ff32009e
:1015300001003c000df0a2006000b8000df0a70013
:1015400009000700dbff37000b000700f1ff270051
:10155000f0ff2f00d7ff37000100070005fe37001e
:1015600001f823000000050001f827000000050035
:10157000200220000100370010022000b05d88002a
:1015800000000600889fbe008a9fbe008c9fbe00a0
:10159000820578000004be00b6fe07000800be0009
:1015a0006420e1000700390002003a00f1ff270043
:1015b000f0ff2f000160a00012022000b25d880041
:1015c000550037006120e10003003a000b00a7003e
:1015d00001f823005000370001f0a10002002100b3
:1015e00093642400e3fd07000800be0004003500fa
:1015f000b2fd2000930c24000e0207000004be0080
:101600000005eb000b00a6004f0dde0001f0a1006d
:101610000004be0032982f0023ea2300c2fe070018
:101620000001eb0003f023000b00a70003f82300e8
:1016300016fc0700fcfd07000000a7000a00a2003e
:101640002afe07000b00e000030032000200200029
:1016500003f023000cfc070001f0a2000006be000e
:101660000200200093042400affe07000801be0022
:1016700006fc0700809fbe000c00be0022a22a00cc
:10168000d3a72300a8fe07004f01be00fffb070001
:101690000004be0001f0a100020020000398230016
:1016a000b4fd07000800be00190035000001be00af
:1016b0009dfe07000006be00b2c52900e3622300bc
:1016c00099fe070022222b00f3942b00effb07006a
:1016d0000c01be0094fe0700e273280083c02300c3
:1016e000eafb07000c01be008ffe070042aa2a0099
:1016f000a3e22b00e5fb07000c01be008afe0700f9
:101700000801be0088fe07000801be00dffb0700dd
:101710000a00a70001f0a2004f06be004f05be0060
:101720004f04be00000006000001eb0095ff3700eb
:10173000889fbe008a9fbe008c1f78000004be00f8
:101740004cfe07000478a30026003a006120e10067
:101750002500320009f8a30025003a006420e100ca
:1017600021003200f507b1000508a3000200320095
:1017700000004000818048006044b8000310200051
:10178000020020000000400081804800080544005d
:1017900089854c000a0541008b8549000a055000e7
:1017a0008b855800030033000a00be000204740059
:1017b000838474008301d1000281d300830f710000
:1017c000f0ff3a008904d1000884d3006001490089
:1017d00082017800c1adde00fb07b000fffd07000d
:1017e0004afe37000960a0000800be0047fe37002f
:1017f00012022000b25d8800f0ff2f00f1ff2700e9
:1018000042fe3700889fbe008a9fbe000004be00d3
:1018100018fe07000800be006420e1000700390040
:1018200002003a00f1ff2700f0ff2f000160a00046
:1018300012022000b25d88004c00370001f0a100c8
:1018400002802000935c24004afd07000800be00cf
:1018500004003500b2fd2000930424007501070048
:101860000004be0032982f0023f223002efe070052
:101870000200200003f0230001f0a70003f0a00005
:1018800082fb070068fd0700801f780097fd0700b6
:1018900001f0a2000005be000200200093fc23001e
:1018a00021fe07000801be0078fb0700809fbe00f4
:1018b0000a00be0022a22a00d39f23001afe0700be
:1018c0004f01be0071fb07000004be0001f0a10043
:1018d000020020000398230028fd070003003d00bc
:1018e0000000200001f82300180037000800be00a7
:1018f0000001be000cfe07000005be00823b230075
:1019000043dc2b0008fe07000801be0006fe0700ae
:101910000801be005dfb07000004be000a00be0017
:1019200052372300f3c12300fffd0700f27a2b009a
:10193000b3ed2b0055fb07000a01be00fafd0700be
:101940000200200003f8230050fb07004f00a60010
:10195000030037000801be0003f0a20002003700b8
:101960000001be000800be0092fc07004f05be004b
:101970004f04be00000006001400fa00889fbe005d
:101980008a9fbe008c9fbe000005be000206be00fe
:10199000680047000c90be000a90be00410007009e
:1019a0006400e1001a00320016003e006100e10010
:1019b0001a0032006e049000fe0490000e0b90009e
:1019c0009e0b90006011b8009e0590000b38b1008e
:1019d000d501200082817100610164008703d1007c
:1019e0000683d3008984d3000884d3008502e900ec
:1019f000f8ff3a0079fd07000df0a70001f0a00004
:101a000063003700f1ff2700f0ff2f006000370070
:101a100001f8270000002000f7ff37006000b80041
:101a2000f5ff37006022b800060220000000d00059
:101a30008180d2000482d2008582d2000000a00002
:101a40000202520083825a00030031000202420067
:101a500083824a000000a1000603e900f3ff3a0078
:101a600000000600efff07000400be0000000600b3
:101a70000003be007ffd07006220e100020032008b
:101a80000600be0005000500e507b100f107b20041
:101a900004f023008480700007f0a70001f0a0008c
:101aa00024000500800078005002be005003be00f4
:101ab0004439de00f700b200f37f2000030161002b
:101ac000090032000218e10016003a008501720098
:101ad00083017300838173000008200015003a0021
:101ae000400020001300370085017200830173005d
:101af0008381730005003a0004a8be0006a8be005a
:101b0000100020000b0037000201e900040242002f
:101b100085824a0006034b0087834b000748a300d9
:101b2000f9ff32000740a00004a8be0006a8be00ce
:101b3000200020008000980092009800000006001d
:101b4000680447000294be000094be00fc044700f5
:101b50008694be008494be0009007800d1ff07007f
:101b600008007800cfff070099007800814f7000cf
:101b70000b003b000800be00780107004f00b100d9
:101b800003003700f3ff2700f2ff2f006110b900b8
:101b90004f06be004f05be004f04be000080fa0095
:101ba00000000600889fbe008a9fbe008c9fbe007a
:101bb0000004be002ffd07000800be006420e10005
:101bc00048003e005500320072212700132b2400ec
:101bd0006afc070047003c000800be00c2ec280079
:101be000e32c2c0063fc0700470035000800be0012
:101bf00001f0a10002002000033823005dfc070073
:101c0000430035000800be00b2a32a0083fb230076
:101c100045fd07000200200003f0230001f0a700ab
:101c200003f0a00099fa07007ffc07000005be0042
:101c3000aefc070001f0a2000006be000200280072
:101c400013f3230038fd07000801be008ffa0700d8
:101c5000809fbe000c00be0032082800e3952b00d8
:101c600031fd07004f01be0088fa07000006be00e4
:101c70000001be002cfd0700809fbe0042412500f0
:101c800083b8230028fd07000200200003e823009a
:101c90007efa07000c01be0023fd07000006be000f
:101ca0004f00be00f2f92b00c3d423001efd070035
:101cb0000200200003f0230074fa07000c01be00ac
:101cc00071fa07000001be000c00be00b9fb07005e
:101cd0000200200003f023006cfa070061014500b8
:101ce000a50007004f06be004f05be004f04be0012
:101cf0000000060001f8270000002000220220005a
:101d0000b25d8800f7ff37006000b800fbff3700c6
:101d100001f8230000002000f2ff370009f8a300bb
:101d2000f0ff32006000b800eeff3700889fbe0071
:101d30008a9fbe000003be00cefc07008505780028
:101d400082815200020020006220e10004003a007b
:101d5000f307b100040035007718e10004003500f6
:101d60000600be00140037006000b8000f00370006
:101d7000f50f2000faff2f008502d1000a85d3005d
:101d80008301e900fcff3b008184620000046500e0
:101d9000890f7400f2ff32008582ea000a85ea00aa
:101da00081846200000465008cfc070007f0a70036
:101db00001f0a0000081eb000200e0004f05be0032
:101dc0004f04be0000000600889fbe008a9fbe0030
:101dd000841f7800bcfc07004f007800110033001e
:101de000f0ff2f00838f6c0006003b0004056500a8
:101df0000a00a7000800370009f0a6001000200024
:101e000008003700820f5400838f5c000300390004
:101e10001000200001003e000000200009f0a70093
:101e20000000ea004f05be004f04be000000e000c5
:101e3000000006000400200000003700889fbe005c
:101e40008a9fbe008c1f78004f26dd009efc070095
:101e5000a5fc33006120e100430032006250e10044
:101e600041003e003e0039006420e1003c003200a9
:101e7000058255000f003b000402e80038003a00dc
:101e8000800f5300818f5b00350034000800be00d6
:101e900003f0a10001f0a60003f0a0000cf0a700e1
:101ea000faf9070099fc37000603430087834b00cb
:101eb0000c4646000005530081855b00020033009c
:101ec0000a03be000c00a0000402e900f6ff3b007c
:101ed000850578000602430087824b0004003a0023
:101ee0006000b80009f0a70001f0a00087fc3700ef
:101ef0000002520081825a000704e000040033000f
:101f00000603430087834b008b05e900faff370087
:101f1000090578000604be000203be006011b80087
:101f20002efc0700e00f5200e08f5a00070035003a
:101f300002003c000c08a300040032000601be00b1
:101f400003f0a0000cf0a700d0f907000a85680094
:101f500001f0a1000af0a70001f0a0006bfc37001f
:101f60000800be0069fc3700100220000cf0a6003b
:101f7000b05d880069fc37000003be003dfc07002f
:101f80006220e100020032000600be0000000600f0
:101f900085024100e30f20000328e10005003c001a
:101fa000a3fe2f000328e10007003d0005002000ec
:101fb00001003700f50f200020022000b05d8800ee
:101fc0006000b80008003700130020008381520031
:101fd00005003d008100d1000080d3008301e800ae
:101fe000fcff3a0005002000c72add00f107b2001f
:101ff0008580700007f0a70001f0a0000000060037
:10200000889fbe008a9fbe008c9fbe0098fe07007e
:10201000850478000005be006420e10049003e0010
:102020006220e10003003200090035000bf8a30034
:10203000440032000bf8a300080032001002200018
:10204000b05d8800f0ff2f00f1ff27003d00370052
:1020500001f82f00000020003a0037003d00070083
:1020600089f907000006be000a00be00324f2000ba
:1020700053f3230041fb0700060034000c00be00b0
:102080003400070080f907000006be000a00be0009
:10209000020037008904e9000c00be002d00070093
:1020a00021fc07002b00070078f907000001be00a3
:1020b0000c00be00bffa07000005be000001be0014
:1020c00019fc07000006be00a2f32300430d2c00fc
:1020d0006ef90700809fbe000c00be00d2e327000f
:1020e000d3f02b0010fc07004f01be00b1fa07002f
:1020f0000006be000a01be000bfc07000a01be007c
:1021000062f907000006be006148b90077fb0700ce
:102110000005be0032082800e3952b0002fc0700f2
:102120000c01be0059f907000006be000a00be00ff
:102130000200280013f32300fbfb07000c01be0084
:1021400052f907004f06be004f05be004f04be0007
:102150000000060003f0230002000500e4824000b6
:102160001078a30007003200640240001178a30039
:102170003400be001401be00040032000330a7008a
:10218000000006003500be001501be000330a000af
:10219000000006008001780002003700b159780085
:1021a0000201e9000200e000fcff3a000000060026
:1021b0008001780002003700815978000201e900af
:1021c0000200e000fcff3a0000000600881f7800d3
:1021d0000204780008017800eeff070008004000c4
:1021e0004f047800000006000000fa00881f780005
:1021f00000047800ea8157003fb997008800780012
:10220000600e2100070007000000e000020035001a
:102210008040eb00017478004f0478000080fa00e1
:10222000000006006200fa00889fbe008a1f780046
:1022300000057800810478000204780083007800ab
:1022400080f92f000f004000680607009a979f0052
:10225000a9979f000000eb00b09f9f001885fb002e
:102260008a04fb000a05ea004f55de0050022000f8
:10227000808f54000d003200e10f55000b003a0032
:102280000a017800880078002f9097009f919700ae
:1022900003000100a0979f000000e0008e003200c4
:1022a0003f9897000000e800b09f9f000a04440098
:1022b00050022000808f5400040032000900e0002a
:1022c000e6ff3a003f989700840037000000eb00db
:1022d000909f9f00809f9f00f0979f00e0979f0036
:1022e000d0979f00c0979f000700370061c420006f
:1022f0000100500000004000a1c3200061007800f0
:10230000df98970001007000d09f9f00880478003c
:1023100009047800384578008a00fb0060c420007a
:10232000110407000000e000f0ff3a00a1c2b30072
:10233000814f55000e003a00cf8897000180e900d8
:10234000c08f9f0010007800c09f9f000000e00039
:1023500005003d000000ea00c09f9f005f989700c5
:102360000020a000d09f9f000904e8000f00370064
:10237000c09f9f000000eb0005003700f2ff270020
:10238000820f5000020032006a01b9000280400052
:102390000904780088047800b900fb000103b1004b
:1023a000e98f5000f5ff3600c09f9f00e0c2b300e8
:1023b000984f1000020032000080eb001900370037
:1023c000a0c2b300d84f100007003a00cf88970092
:1023d0000180e900c08f9f0010007800a09f9f003f
:1023e0000804e800100037000000eb00a09f9f00e9
:1023f0008800780005003700f3ff2700830f5000a6
:10240000020032006a02b9000400410001047800b1
:10241000880078003101fb000203b100e90f510090
:10242000f5ff3600a09f9f00984478008900fb00cc
:1024300020c32000cc0307000000e00002003200af
:102440000804e800010037008044eb00c97f9f00ca
:1024500080c6b30080cf540004003a0098cf140027
:102460000a003a006640500006003700c0c6b300bc
:1024700080cf540005003a0098cf140003003a00c2
:1024800065404000c07f9f000804e8001801fb0081
:10249000e3fb2f008f81410081f92f008f804000e6
:1024a000a0f92f000f004000100007000000e0001e
:1024b00009003a00e1fb2f008f804000a0f92f00b7
:1024c0000f0040000d0507000000e000020035008d
:1024d0000804e80061ff37000080eb004f0578003a
:1024e0004f04be000080fa0000000600889fbe0076
:1024f0008a1f780000047800824478000305780081
:1025000070c6b30080cf54001a003c0000c0e90040
:1025100080cf5400cd003d006d40500080cf54006e
:10252000770032000b003c007140500080cf540017
:1025300035013c0000c0e90080cf5400c3003d00dd
:1025400050c2b30080cf54002c0132007c404000c8
:102550000500370030c6b30080cf54001a003200a7
:102560001e003c0000c0e90080cf540026013a0064
:10257000b6003700f0c6b30080cf540060003200d0
:1025800007003c006640500080cf5400130032002a
:102590006540400080cf54001b013a00d400370052
:1025a00050c7b30080cf5400550032006340400054
:1025b00080cf54005200320002c7b30082cf5400d3
:1025c00011013a00ff0037001181e900820878000c
:1025d0007800900012757800110137002860900093
:1025e000c2c6b300824f500007003a0011017800c4
:1025f00064005100800878001000be004f89de00a2
:10260000820178001400370012c7b300824f5000d7
:1026100003003a00110278006800520005003700fc
:10262000a2c6b300824f500006003a009102780023
:1026300068805200800878005001be004000be0053
:10264000050037001180e90080087800100078004c
:10265000cf80de006109b900009cbe000294be007c
:102660002862900085c6b300854f52000d003200ed
:1026700025c6b300854f520004003a000000fb005d
:10268000cf80de006109b9000800370045c7b300fc
:10269000854f520003003200e6c24200854f5200cf
:1026a00004003a00cf80de006109b900009cbe0042
:1026b0000294be003802be002803be0078009000dd
:1026c000d1c2b300e00f5200e08f5a00e00f5b0070
:1026d000e08f5b0008003500881090000118a3000f
:1026e00002003200b1c2b300030037000108a300aa
:1026f0005100320001c2b300017578004c00370070
:1027000028609000c2c6b300824f500008003a0013
:102710001103780064005300800878001002be00a6
:102720006033b8000400be000601be00140037008c
:1027300012c7b300824f500003003a0091027800a4
:102740006880520005003700a2c6b300824f5000d7
:1027500006003a00110378006800530080087800f2
:102760005001be004000be00050037001180e900a6
:1027700080087800100078008000eb006011b8003d
:10278000009cbe000294be002862900085c6b30083
:10279000854f52000d00320025c6b300854f520010
:1027a00004003a000080fb008000eb006011b800dc
:1027b0000800370045c7b300854f520003003200c0
:1027c000e6c24200854f520004003a008000eb0050
:1027d0006011b800009cbe000294be00081090007a
:1027e0000038a300140032003800be002801be00eb
:1027f000e00f5000e08f5800e00f5900e08f5900c3
:102800000d00320080c7b30080cf540003003200b7
:1028100080c5b30080cf540007003a0078009000d4
:1028200001c3b300017578000000e8000975780065
:102830000000e80070049800780090000005450052
:102840006a04980089407800690037002861900088
:10285000c0c4b300804f510006003a0091037800d5
:1028600068805300800878005001be004000be0020
:1028700005003700110178006400510080087800dd
:102880001000be001cf90700009cbe000294be00b0
:10289000b8009000780090000100e00002003d00c8
:1028a000d1c2b30008003700881090000118a300bf
:1028b00002003200b1c2b300030037000108a300d8
:1028c0000400320001c2b300017578000000e80086
:1028d0007004980078009000000545006a04980094
:1028e0008900fb0008007800530007004e00370005
:1028f00028619000c3c6b3001180e900834f5100e6
:10290000240032000a003c00e4c15100834f510012
:102910002700320083c1e800834f510015003200c8
:1029200020c6b300804f510020003a000a00370053
:1029300043c7b300834f51001d003200e6c1410080
:10294000834f51001a00320010c7b300804f51006e
:1029500016003a00060037001180e9008008780070
:1029600010007800485c9000084878002e0037007e
:102970001180e9008008780010007800680a900053
:10298000cfa2de00612bb9000498be000690be0005
:102990002500370080087800100078006809900052
:1029a000cf91de000288be001f0037001180e900d1
:1029b0008008780010007800680c90000808780003
:1029c000190037001181e9008208780012027800ae
:1029d000cfa2de00612bb900049cbe000694be00ad
:1029e000f8009000010545006a04980080407800d6
:1029f00008007800920207000b0037007800900072
:102a00000975780006003700780090000005450041
:102a10000904e00001003a0059c2b300094d7800f2
:102a20000000e800700498000000eb004f057800fb
:102a30004f04be00000006002f04b000889fbe00b7
:102a40008a9fbe008c9fbe008e1f78000007780012
:102a500081f79f003e04be002e05be005e08900078
:102a60000000e00002003d0060002000500f9800d0
:102a70008e00780020fb2f000f0040004602070068
:102a8000e20f50000a003a0030002000100f9800ba
:102a9000b1c9b3000ff0970081404000c0bb2000d7
:102aa000e1cf50000d003e0080bb20000b0037003e
:102ab0000000e0000f00340030002000100f9800ec
:102ac000b1c9b3000ff197008140410040bc200024
:102ad000e1cf500001003e0000bc2000ee0090005d
:102ae000b0487800b06878001040780090409800b6
:102af000f30037000000e00005003a0022fb2f0041
:102b00000f014100001978008001eb00e700370059
:102b10006022b8006033b8000800be000a01be00a1
:102b2000800407000000e00001003d000bf0a2005f
:102b3000705927009f9897000088b900026a280002
:102b4000130020005df80700640650009c9f9f0062
:102b500013003b0063061600c0ff2f00000666004e
:102b60008c01ea00939f9f008dbc20000800be00ee
:102b70000a01be00070037000c08a3000300320062
:102b80003d02be002d03be00250507000c86d100c6
:102b9000e88646000c00e000f7ff3c001800370014
:102ba0000c00e00018003200c0ff2f000006660095
:102bb0009c9f9f008dbc20006000b8000200200098
:102bc00003ff2300070037000c08a30003003200b6
:102bd0003d02be002d03be00110507000c86d1008a
:102be000e88646000c00e000f7ff3c000002be0053
:102bf0000203be000800be000a01be005304070025
:102c00000004be000205be00de08900060c6b300ee
:102c10000ff29700804f5200040032006000200045
:102c200062c4b300824f520002003a009f9a97009c
:102c30006a80420081004000f1b79f0001037800e4
:102c4000f30f53000200340037012000f7b79f0054
:102c500000c3b300c0779f0056fb2f000f03430053
:102c60000e007800a0b79f00060778003d003700ef
:102c70000800be000a01be00ba0407000006be003c
:102c80007fb1970068015100f2b79f004240a90050
:102c90000c003400df0407000002be000203be0087
:102ca0000800be000a01be00530507006022b800fc
:102cb00046782d0077192400d90407000004be00cf
:102cc0000205be00e80047008e0020000802be009a
:102cd0000a03be00b4b79f00c5b79f00d6b79f00d8
:102ce000e7b79f000c01be00010478000c0037001c
:102cf000a400200005002000c0fd2f000f004000b0
:102d0000840107006fa89700ffa897000fb19700f4
:102d10009fb1970005c3b300056441000001be00e8
:102d2000e00f5100e08f5900030034000e07e90066
:102d3000e10f4700eeff3a00880078003fb49700ab
:102d4000cfb497005fb59700efb59700020037004a
:102d500000c3b300806078000e07e900fcff3b0071
:102d6000688740007fb397000600e000070034004a
:102d70006022b8006033b8000800be000a01be003f
:102d8000ed0307000000e000b9ff3c000e037800ef
:102d90002fb7970051fb2f008f8040000103530095
:102da0009f9b970067804300909f9f000200370021
:102db0000603e9000000e9000101780082007800c4
:102dc00003c3b300b1cf1100f9ff3200909f9f0001
:102dd000de09900061c6b3000ff29700814f5200e8
:102de0000300320061c4b300814f520002003a0078
:102df0000000e8000a0037001000200051c6b300b0
:102e00008ff2970081cf5200050032000540780014
:102e100050c4b2000080fb000000e9004f00de005b
:102e200083014000868f5100010034008601780044
:102e30000300e0001d00350000c3b300868f510081
:102e400006003d0062c279006940400041c3b30002
:102e5000814f520001003c00694050008300e900ae
:102e60008100410001003700840178000302e9007d
:102e700001037800a142780080cf5200faff3200af
:102e800091c3b300814f500001003a00054be800a8
:102e90000400e00005003d000201e9008301e800b4
:102ea0001f9b97000603e800969f9f008ff39700f3
:102eb0008700fb001f9a97000e00780006000700ad
:102ec0004f0778004f06be004f05be004f04be00fe
:102ed0002f04b10000000600f0874700889fbe0065
:102ee0008a9fbe008c9fbe008e1f78000004780071
:102ef000814478000205be00040678000b00e00063
:102f000002003c001b002000cac4200060c6b300c1
:102f100080cf54000e00320060c4b30080cf540054
:102f20000b00320070c6b30080cf540003003200a3
:102f300070c4b30080cf540081003a00e40f460013
:102f40007f00350058089000800f56007c003d003f
:102f50000c06e80060c6b30080cf540010003200b9
:102f600060c4b30080cf54000d0032000810900000
:102f70000038a30004003a0058089000808f5500e4
:102f800001003d005b0c9800580890000c005000b8
:102f9000500c980002003b000000eb00500c980021
:102fa00018089000e80090000c00e00026003c00ab
:102fb00002c3b300827078000000e800100c980093
:102fc000d80890000100e00003003c008810900049
:102fd0000138a30005003200e8009000e2c2b3000f
:102fe000827078000000e800100c980058089000eb
:102ff0008c00ea00810f500001003d000006ea004d
:103000008c00ea00210c9800000646005c0c980039
:103010008b0f5600010034000b0678003c0c980022
:10302000e800900018089000008040000c01780033
:103030008a00780057fc0700580890000c065000e2
:103040004c0c9800900037008c8f550018003d0004
:10305000008040000b0178008a0078004dfc0700da
:103060001808900000804500100c98008b05560051
:103070002b0c9800d80890000100e00003003c00f1
:10308000881090000138a30006003200e80090008c
:10309000e2c2b30082707800380890000000e800b7
:1030a000300c980058089000400c980076003700cb
:1030b000008040000c0178008a00780035fc070091
:1030c0001808900000004600100c98008c855500f0
:1030d000d80890000100e00003003c008810900038
:1030e0000138a30005003200e8009000e2c2b300fe
:1030f000827078000000e800100c980058089000da
:10310000808f55000100340080057800e8009000b1
:1031100018089000008040008c0045000b017800ea
:103120001cfc0700180890000b004000100c9800d1
:10313000580890008b0550002b0c98005200370067
:1031400018089000e80090009a7078000000e800ed
:10315000100c9800d80890000100e00003003c002b
:10316000881090000138a30005003200e8009000ac
:10317000e2c2b300827078000000e800100c9800f2
:10318000580890000000e000100034008b05e900b2
:10319000808f55000100340080057800e800900021
:1031a00018089000008040008a00e8000b017800b9
:1031b000f8fb0700180890000b004000100c980066
:1031c000580890008b0550002b0c9800e8009000e8
:1031d0001808900000804000095878000007e800b7
:1031e0000c00e00004003500b1c2b30001487800d3
:1031f0008e04780004003700d1c2b3000148780083
:103200008e0478000c06ea007d8557008006eb00ee
:1032100009003700a20020008c007800728057005f
:10322000310007007fb097008fb89700016d7800dc
:10323000000678008d06e8000c00e000f5ff3c0079
:103240000d00e00009003a008e04780000c3b300ce
:10325000805c7800050037008d06e900fc8057008f
:1032600061c07e0002c3b300825c40000d00e0003c
:10327000f9ff3c00e8009000180890000080400032
:1032800080845400390c980008109000740060008d
:10329000f00f50000e003a0098089000780090005f
:1032a00000804000a808900001004000b80890008d
:1032b00001004000c808900001004000f80890009c
:1032c000810f500002003d0000805000000c98006b
:1032d0004f0778004f06be004f05be004f04be00ea
:1032e0000f01b100000006008002780001037800a1
:1032f000110009000203d80080017800830a7800d9
:103300000299b9000201530092029800050078006a
:1033100000000600881f78008a9fbe008c9fbe00b8
:10332000000478000205be000406be000401be00d1
:103330000a00be0061f60700008cbe000c01be0052
:10334000af0307000005550081855d002a04980041
:103350003b049800080078004f06be004f05be00f1
:103360004f04780000000600020037000304e0006c
:10337000060032000001780002007800b0417800b9
:1033800081cf5100f9ff3a00010037000001eb0046
:103390000200780000000600889fbe00000478004c
:1033a000e68440001900d0004500de00f27f2000d6
:1033b000820f500010003a00000ceb0099047800d6
:1033c0006f816400200020001b003a002101900062
:1033d0000200e00018003a00110190000200e00035
:1033e00015003a00100020001100e0001200320029
:1033f00020002000100037000000e00004003a0028
:1034000001007800fb0107000000e00008003c001c
:10341000f20028001901610001fe2300810c7100f7
:1034200021c02f00010c40000080eb00020037009b
:10343000000ceb000000eb004f04be000000060093
:10344000fc874700889fbe008a9fbe008c9fbe00fd
:103450008e1f78000006780080c5b30080cf500032
:103460000a0032007740400080cf50000a0032004e
:103470006940400080cf50000b00320010c2200095
:1034800080bf9f00ae0020000a00370002c120006c
:1034900082bf9f000600370013c2200083bf9f0039
:1034a0008e0020000300370014c2200084bf9f005c
:1034b0000e0120003c02be002c03be000605be002b
:1034c0000404be0040c6b30080cf500003003200a9
:1034d0006540400080cf50000b003a00e00f5200e2
:1034e000e08f5a00e00f5b00e08f5b0006003d00bc
:1034f0006000b8006011b8000404500085845800d2
:103500000605590087855900e80f5700040032006e
:1035100040002000f00f570038003a00010037004b
:1035200030002000e00f5400e08f5c00e00f5d00f1
:10353000e08f5d0004003a00dc0890008d0120005f
:103540000100e000060032008e00e9008880600083
:103550008fba9700e5c07800f1ef9f007d01200051
:10356000800078008100e900050033008b05d10060
:103570000a85d3008984d3000884d300f9ff37007b
:10358000089ebe000a96be00120037008d06e900b4
:103590008e00e900848060000fb99700e2c17800d6
:1035a00082fd2f000f01410003f17e0080007800b2
:1035b0008100e900050033008783d1000683d30032
:1035c0008582d3000482d300f9ff3700049ebe0039
:1035d0000696be003c02be002c03be00e00f520067
:1035e000e08f5a00e00f5b00e08f5b008b0034003f
:1035f0000d00e000e5ff3c00880037002c609000e3
:1036000081c6b300814f50000b00320006003c0021
:103610000004e00008003200e6c05000814f500076
:103620004e003a0004003700c1c6b300814f50007d
:103630004a003a00210037000800e00004003a0088
:103640005c0890008d0120000000e00006003200c0
:10365000110009000e84d8000fb99700e2c078006d
:10366000f1ef9f007d012000110009000e84d800b9
:103670000a003700110009000e04d8008d06e90089
:103680000e81b900020454008fb8970061417c009c
:1036900081fd2f008f80400082f07e0000047800c2
:1036a0000800e000020032000d00e000f1ff3c00e5
:1036b000cfc4de00614db90025003700e00f540093
:1036c000e08f5c0004003a005c0890008d0120004f
:1036d0000000e000070032006171b9000800be0080
:1036e000e0f807008fb99700e3417800f3ef9f00ff
:1036f0007d0120006171b9000800be00c9f8070013
:103700000b0037006171b9000800be006bf50700bf
:103710008d06e90000f1b900020454000fba9700c9
:10372000e4427c0084fd2f000f02420005f27e007f
:103730000004be00e00f5000e08f5800020032008d
:103740000d00e000efff3c004fcdde008a05780061
:10375000089ebe000a96be0030003700e00f5400fd
:10376000e08f5c00e00f5d00e08f5d0004003a0038
:103770005c0890008d0120000000e000090032008c
:103780006172b900612bb9000800be000a01be00d9
:10379000410307000fba970064427800f4ef9f00de
:1037a0007d0120006172b900612bb9000800be00e4
:1037b0000a01be00310307000d0037006172b90035
:1037c000612bb9000800be000a01be0036030700e5
:1037d0008d06e90000f2b900040454008fba970086
:1037e00065427c0085fd2f008f82420084f27e00be
:1037f000009ebe000296be003c04be002c05be002a
:10380000e00f5400e08f5c00e00f5d00e08f5d0092
:10381000020034000d00e000e8ff3c00e80f570014
:1038200010003a000c1090000038a3000d00320088
:10383000f78f560006003e0085fd2f008f82420064
:10384000e5c07e0000c3b30080cf50000500320009
:103850008d06e90002c3b30081fd2f008f80400078
:1038600082f07e0078811600120e98006c009000a5
:1038700083fd2f008f8141008d80410045fa0700b4
:103880001c089000dc089000810f500006003d00ed
:1038900000805000000e98000c1090000040a10025
:1038a000001698000f0037000100e0000d003d00f9
:1038b0008c109000f4806000f08f500009003a00f6
:1038c0007c099000fc009000810051000c099000e0
:1038d00082805000008050004240a9000100340066
:1038e000000e98004f0778004f06be004f05be003f
:1038f0004f04be00cf01b100000006000400fa0032
:10390000889fbe008a9fbe008c1f7800000478004c
:1039100001067800f80d9000780090008085550031
:103920000808900080855500180890008085550093
:103930002808900080855500380890008085550043
:1039400048089000808555000002220090bf9f002b
:1039500000032300a0bf9f00081090000028a300d0
:1039600015003a000b00e000130034000b0578004e
:103970008a047800e20f550001003600290020007b
:10398000c801900009017800ee80570058009000af
:1039900003000100500498000000e0008c00320099
:1039a0006808900009004000600c98000905550067
:1039b0004240a900eeff3c00780190000200e000c8
:1039c0000c003400c80190008c0078005800900072
:1039d00003000100500498008080eb000000e0002c
:1039e0007c003200e80890007800900000804000e1
:1039f000600c9800880c90000900e0001100340071
:103a000009057800e28f5400010036002a002000ea
:103a1000c80190000a017800ec805700580090001f
:103a200003000100500498000000e000680032002c
:103a3000680890000a004000600c98008a845400d6
:103a4000edff3700180990000200e0000c00340080
:103a5000c8019000e80090005800900003000100a9
:103a6000500498008080eb000000e0005900320014
:103a7000e80890001808900000804000600c980052
:103a8000a80c90000900e00011003400090578003e
:103a9000e28f5400010036002a002000c801900087
:103aa0000a017800ec8057005800900003000100e4
:103ab000500498000000e0004500320068089000c3
:103ac0000a004000600c98008a845400edff370023
:103ad000380990000200e0000e003400e800900079
:103ae0001808900080804000c801900058009000a5
:103af00003000100500498008080eb000000e0000b
:103b000034003200e808900038089000008040003f
:103b1000600c9800c80c90000900e000110034000f
:103b200009057800e28f5400010036002a002000c9
:103b3000c80190000a017800ec80570058009000fe
:103b400003000100500498000000e0002000320053
:103b5000680890000a004000600c98008a845400b5
:103b6000edff3700081090008000eb000028a30054
:103b7000180032000b00e000160034008b047800bf
:103b800009057800e28f5400010036002a00200069
:103b9000c80190000a017800ee805700580090009c
:103ba00003000100500498000000e000080032000b
:103bb000680890000a004000600c98008a84540055
:103bc0004240a900eeff3c008000eb0001003700fe
:103bd0008080eb00010078004f0678004f05be00a2
:103be0004f04be000080fa000000060001087800c3
:103bf00000000600e60040001101780005002800e2
:103c0000850261006f0161008208780002003200c5
:103c10001200200011003700a001900012002000c7
:103c20000300e0000d003a00900190000300e00066
:103c30000a003a001000e00008003a0036003700a1
:103c4000640340009608780080017800530b7800e8
:103c50009009780004087800700151001102780082
:103c60000400e000f6ff3200130037006402400059
:103c7000140378004f33de00838141008308730012
:103c800080017800d3037800cf3bde001403780076
:103c900006034300068a7300130278000402420000
:103ca000100378004f33de0086097200900178001f
:103cb000038841000201e90091017800ef8f510073
:103cc000eaff3600100037008001780053037800c7
:103cd0004f33dd001002d10004087300640240007d
:103ce00094037800cf3bdd001303d1008689730075
:103cf000110378004f33dd009401d100030a7300f3
:103d00009108d1000201e80091017800ff8f510075
:103d1000edff3e00ef88610091887200020078009c
:103d2000000006008f1fd100bb0207008f87e9004b
:103d30000000e00000000600809feb00b6020700d4
:103d40008f87e9000000e000000006002800fa006c
:103d5000889fbe008a9fbe008c9fbe0003866b00ba
:103d600077f707006400e100440032006408e100d6
:103d70004a0032006100e100460032006108e100c3
:103d800049003200ec0647006000b8003d02be006a
:103d90003d03be00f48657006011b8003d04be002c
:103da0003d05be007d0320000b0037000000a00091
:103db0008d06e900130032000402420085824a00a9
:103dc00006034b0087834b000000400081804800c1
:103dd00002014900838149000802520089825a0089
:103de0000a035b008b835b00f0ff3b00080242008c
:103df00089824a000a034b008b834b008d06e90041
:103e0000edff3a008482720086827200f707b200ea
:103e10008782720001003200150020001e0490000d
:103e20003e0b900006035400e63fb0000368a30079
:103e3000070032000000a7000500a0008301d100a8
:103e40000281d3008180d3000080d3000603e80004
:103e50008301d1000281d3008180d3000080d30090
:103e60000002eb000482d2001200070003f0a10060
:103e70000cf0a70003f0a00045f7370064024700ec
:103e80006408e1003ff732003400be003401be0098
:103e9000f6ff37006108e1003af732006011b80020
:103ea0006000b800f1ff370003ff27000200200088
:103eb000fbff3700180020005700200008045300c3
:103ec0000d003d000600200097fc2f000740e10098
:103ed0001e00340084827200610260008301d10000
:103ee0000281d3008180d3000080d3000804e80061
:103ef000f8ff3a00470020006104600005047400e8
:103f0000040464000d00320061004000e0804800bd
:103f100060014900e081490003b8a50007003200b4
:103f20000603e8006538e10004003a008301d1008f
:103f30000281d3008180d3000080d300f87f20006d
:103f40000830e10003003500080378006000b80085
:103f50006011b8004433dd00f300b2008301730048
:103f6000000006001400fa00889fbe008a9fbe0071
:103f70008c9fbe000004be000205be006800470022
:103f80000a90be000890be00c6f607000070a700a9
:103f90000bf0a100304320009e029000808252006e
:103fa000b0fe2f000028e10011003d00b0fc2f0002
:103fb0000028e100150034001e0990008e089000d2
:103fc0007e0090000501b0000201d1008180d30085
:103fd0000080d3008502e800fbff3a000b00e00000
:103fe000ebf63b0060001000e0801800e8f63700b8
:103ff000f0ff2f00f1ff27000b00e000e4f63b008c
:104000000100280000002000e1f637006000b80041
:10401000dff637004f89de00820178003902370071
:104020002800fa00889fbe008a9fbe008c9fbe00b9
:1040300003866b00c2f607000028a30064003a0064
:104040000128a30067003a000008a30062003a00bc
:104050000108a30065003a001e009000be08900011
:1040600081064000ed3fb100f4805700ee01900062
:10407000111ab8008e099000311bb8009e099000fb
:10408000311cb800511db800f485570046000700e8
:10409000fe0190003a0007008b85e8003e00070013
:1040a0008e09900040000700ee01900034000700e8
:1040b0008b85e800380007008e099000400007005b
:1040c0009e0990001b18b800890440000a8548002a
:1040d000fe019000340007008b85e80038000700df
:1040e000ee019000300007008e0990001b18b80008
:1040f000890440000a8548000a98a30008003a0095
:104100000402420085824a0006034b0087834b006d
:1041100008044c0089844c000a054d008d06e90016
:1041200084827200850273004c3add0085027200c1
:104130000100320015002000443ade001400b200f5
:104140004538de00cb45dd000b007000c540de00c9
:10415000cb4ddd008b8070004549de00cb55dd0086
:104160000b017100c551de000d03780051ff0700ff
:1041700003f0a1000cf0a70003f0a00084f63700c4
:104180001b18b8008502400006834800e0834b00fe
:1041900060044c00070037001b18b80006034000fd
:1041a00087834800faff37001b18b80087034000d8
:1041b00008844800e0844c0060054d0000000600c3
:1041c0001b18b8000804400089844800faff370033
:1041d0000108a3006bf63a005800be005801be006b
:1041e000e3ff37000008a30066f63a0009047800f0
:1041f000f9ff37000000000007f0a20008013700b7
:10420000020ab900001bb9000200b8008100420098
:104210008100430000000600889fbe008a9fbe0008
:1042200030044200b0844a0030054b0090854b00ba
:104230006000b1000898be000a90be000440e10092
:1042400005c8e10006d0e10007d8e1000200310016
:10425000680040001008e8004f05be004f04be0093
:1042600000000600889fbe008a9fbe003004be008a
:104270002005be000418540005985c0006185d0077
:1042800007985d00110020000440e10005c8e1002e
:1042900006d0e10007d8e100010039008000eb0002
:1042a000108810004f05be004f04be00000006003d
:1042b0001200fa00889fbe008a9fbe008c9fbe003d
:1042c000e0b79f00f1b79f0082bf9f0093bf9f00a0
:1042d0000605be000404be000000eb00d0b79f003e
:1042e000c0b79f00b0b79f00a0b79f0090b79f00d6
:1042f0000006eb005fb19700cfb09700820141004c
:104300003fb097000200e00004003d0037000700c6
:104310007e805700c0ff070003003700330007000e
:104320007e805700cfff0700dfb697000d00e0004a
:104330000c0035006fb29700ffb297000fbb9700db
:104340009fbb970010002000010020006011b80002
:104350000002720081827200020373008383730083
:104360001b0007000c06e80001042000810f560026
:10437000e0ff3a000d00e00004003d000802be002e
:104380000a03be007e805700a3ff07005fa89700c6
:104390000000e00005003a001fb29700afb297009e
:1043a0003fb39700cfb39700090007006fb09700a5
:1043b000ffb097000fb997009fb997004f06be0056
:1043c0004f05be004f04be000080fa00000006004a
:1043d0000100070000000600a4b79f00b5b79f00ca
:1043e000c6b79f00d7b79f00000006004f09de0048
:1043f00082817100b3b79f004f01de0081804000d1
:1044000082807000a1b79f008fb097004f09de0037
:10441000000040000200700090b79f007fa8970046
:104420004f01de00818040008280700081b79f00d4
:104430000d0007004f3ade0000004000040070004d
:10444000f0af9f00080007000402420085824a0086
:1044500006034b0087834b00dfff07000802be0006
:104460000a03be00000006002fb29700bfb29700fb
:104470004fb39700dfb3970000000600881f780055
:1044800018002000881f780089ff07008f87e90047
:104490004f04780000000600801feb0084ff070037
:1044a0008f87e90000000600889fbe008a9fbe003b
:1044b000e00f5000e08f5800e00f5900e08f5900e6
:1044c0000c003d006044b8006055b8000000540086
:1044d00081805c0002015d0083815d001800200086
:1044e0001500070008003d00180007000004eb005d
:1044f000050037000004eb000f00070002003d003c
:104500001200070018002000dcff07000800e00090
:10451000060032006022b8006033b800000052008c
:1045200081805a0002015b0083815b004f05be0061
:104530004f04be0000000600e00f5200e08f5a005a
:10454000e00f5b00e08f5b00000006006044b800f5
:104550006055b8000402540085825c0006035d00cb
:1045600087835d0000000600889fbe008a9fbe0012
:104570008c1f7800e00f5000e08f5800e00f5900ca
:10458000e08f59000d003d006044b8006055b80050
:104590000000540081805c0002015d0083815d00a9
:1045a0001c0020000820e10009a8e1000ab0e10099
:1045b0000bb8e1000d003d00080037000006eb00dd
:1045c000e00f5200e08f5a00e00f5b00e08f5b00cd
:1045d00006003d006044b8006055b8000402540075
:1045e00085825c0006035d0087835d00aaff0700eb
:1045f0000c00e000060032006022b8006033b80012
:104600000000520081805a0002015b0083815b0040
:104610004f0678004f05be004f04be0000000600a4
:104620002800fa00889fbe008a9fbe008c9fbe00b3
:1046300007067800878669000c003b0003047800b9
:104640008704780008f0a10009f0a100840f500051
:10465000858f5800860f5900890f5c0003003300d6
:104660000cf0a20001003a000cf0a10034f50700a4
:104670006400e1005f003200780147006408e10057
:10468000610032006c014700748557003200be00a3
:104690001201be003a04be001a05be001e039000bf
:1046a000be0a90008503530006003d000004fd0093
:1046b0008104fd000205fd008305fd008703ea007b
:1046c000050378000df8a300040032006004140014
:1046d000e0841c0060051d00e0851d006022b8001c
:1046e0007d0320000d38e1008006eb000b0039004f
:1046f0004433dd00f300b20083017300390037005a
:10470000848272000d027800e10664008b85d1007e
:104710000a85d3008984d3000884d3008703e90085
:10472000f7ff3b0008004000898048000a0149006b
:104730008b81490004003b0060001000e0801800fd
:1047400060011900e08119000358a300090032003c
:104750008d82720084827200610260008301d10048
:104760000281d3008180d3000080d3000603e800db
:104770001b0037000348a30017003a000600e000c2
:10478000170034000603e9000d00a30000004800f4
:104790008180480002014900838149000348a30049
:1047a0000f003a000600e000090034000603e900ab
:1047b00000004000818048000201490083814900d7
:1047c00001003a000003eb000348a300f5ff3200ac
:1047d0006022b800020037008482720061826600a5
:1047e000b4fd070003f0a1000cf0a70003f0a00047
:1047f000e7f43700640147006408e10002003a0072
:104800000df8a300dff43a003200be001201be0032
:10481000dff4370000000000889fbe008a9fbe00c2
:104820008c9fbe000404be000605be00809fbe0033
:10483000829fbe0021000700040678000800be0029
:104840000a01be001d000700840678004f03be0069
:104850004f02be008d4f76007fb0970013003300eb
:10486000f0ff2f008b8f6b0006003b000d066600eb
:104870000c00a7000a00370007f0a6001000200077
:104880000a003700880f5200898f5a008a0f5b0098
:104890008b8f5b00030039001000200001003e00f8
:1048a0000000200007f0a7000000ea004f06be004d
:1048b0004f05be004f04be000000060005ff2700a4
:1048c00005826100070032000428e1000100320087
:1048d000240005000600070001003a00440005001e
:1048e0000408050002000700f9ff3a001400050063
:1048f0006f82610081027000850271008502720082
:1049000000000600881f7800030478000300e00020
:1049100007003d0060001000e080180060011900f1
:10492000e081190002003b0001f02d000300370078
:104930000400070008f0a70003f0a0004f0478006f
:1049400000000600889fbe00008270000402710013
:10495000048271002400320036432000c50020008c
:104960008383cf000a0039000541b1008283cf0064
:10497000070039000541b1008183cf0004003900f0
:104980000541b1008083cf00010039000541b1002d
:1049900085c353006022b800120032000a003b00b9
:1049a00084827200610260008301d1000281d30021
:1049b0008180d3000080d3000603e8008743e8002d
:1049c000f7ff3a00070037000000400081804800f0
:1049d00002014900838149000603e9008743e90099
:1049e000f9ff3a0033fd07004f04be000000060047
:020000040000fa
:1049f000400000002200000014000000070000003a
:104a0000030000000100000005000000020000009b
:104a1000280000000a00000006000000020000005c
:104a20000100000056390000274d00000000000082
:104a300000000000000000000000000060f5000021
:104a40004b4a00008d6a0000954000009b58000012
:104a5000c4450000004e00000847000003090000a4
:104a6000944000009b580000444600000090000065
:104a70005a450000569f00002f40000014cb000054
:104a8000b345000000a0000055450000b30c000035
:104a900035400000787a000061400000000000000e
:104aa000444500003d2c000068400000e3c80000c1
:104ab00097470000004000002745000013610000f8
:104ac0008d4000005ba30000f54500000070000071
:104ad000124500008f530000c44000005ba300009b
:104ae0007545000000800000a54400007b14000014
:104af0003e3f000014cb00003346000000200000c1
:104b00009f440000d95f000002400000396c0000a3
:104b10000444000000e00000954400005f0700002e
:104b20008e3f0000fe2a0000c54400000080000007
:104b300077440000bc740000a74000006ae7000052
:104b4000b7450000008000006144000048e100001b
:104b5000024000004e620000d24100000040000010
:104b60005644000012830000604000001213000051
:104b7000c7430000000000004344000079e9000042
:104b8000963f00008d3d0000a3450000004000005e
:104b90003c440000ac1c0000224000006d1c0000e2
:104ba000ac45000000800000fc430000f0a70000be
:104bb0009240000075420000934600000000000093
:104bc000f64300005c8f00008640000079e10000a1
:104bd0004144000000800000b243000048e10000b2
:104be0003a4000004c370000893d00000080000082
:104bf0009e430000022b0000bb400000843a0000ee
:104c000038460000000000008e4300006f120000d4
:104c1000f33f000012130000474400000080000032
:104c200087430000ae470000a13e00005184000011
:104c30002b4600000000000073430000d7a30000d3
:104c4000b03e000039760000ab45000000000000d7
:104c50004e430000c1ca0000994000000605000054
:104c60001f450000000000004d430000643b0000b1
:104c7000ef3f000025290000ae45000000000000c5
:104c80004a430000df4f00001d40000037ae000027
:104c9000bd450000000000001c4300007d3f0000f7
:104ca000553f00008b4c0000554300000000000001
:104cb00004430000d34d00005a40000068e70000a4
:104cc0003745000000000000fc420000be9f0000cd
:104cd0008a3f000033330000a641000000000000be
:104ce000e6420000b81e0000253f000048e1000039
:104cf0007a3f000000000000ce420000e5d0000036
:104d0000223f000006b000009245000000000000b5
:104d1000cc42000023db0000793f00005ba30000d1
:104d20007546000000000000cc420000448b0000eb
:104d300088400000e3a50000e34000000000000000
:104d4000c642000052b80000c6400000b822000071
:104d50000645000000000000c44200007b14000073
:104d60002e3f0000856b00001b4300000000000088
:104d7000ac420000295c0000bf4000002c3a00005b
:104d80001d48000000000000aa4200006666000006
:104d9000a63f0000ae1f0000c44500000000000058
:104da000aa42000048e100006a4000005a83000067
:104db0008b47000000000000a042000014ae00007d
:104dc000e73f00004dd800008646000000000000cc
:104dd0009e4200005c8f000042400000d71100009e
:104de0003c4600000000000096420000ae47000074
:104df000e13f00000a0500009f45000000000000a0
:104e00009442000000000000604000000a2b0000f7
:104e10004545000000000000944200008fc20000e1
:104e2000954000007b740000484400000000000032
:104e30008c420000e17a0000543f00000a77000035
:104e400013460000000000007842000052b8000045
:104e50007e4000008fed00000946000000000000c9
:104e600074420000c3f50000e83f00003367000013
:104e7000dd450000000000006442000085eb0000fa
:104e800031400000cd740000c44500000000000067
:104e900060420000e17a00008c40000000fe00004b
:104ea0005c46000000000000604200007b1400002f
:104eb0005e400000663c0000c445000000000000a9
:104ec000504200005c8f0000423e000033ae000004
:104ed0003d4600000000000050420000713d00000f
:104ee000aa3f0000a4800000da4400000000000097
:104ef0004c420000295c00008f3e0000d7030000f8
:104f0000b7450000000000004442000048e10000f6
:104f1000fa3e0000664e00009544000000000000cc
:104f2000244200000ad70000ab400000f6b40000a5
:104f30000346000000000000244200009a9900008f
:104f4000194000001a860000994600000000000089
:104f50001c420000a4700000c54000008f3d00000e
:104f6000234600000000000014420000ae4700008d
:104f7000c1400000299500001f460000000000000d
:104f800014420000e17a000024400000296c000077
:104f900084440000000000001042000048e10000ce
:104fa000da3f0000ec0d0000134500000000000097
:104fb000104200000ad70000e33f000029e600008d
:104fc000d445000000000000044200003d0a00003b
:104fd000173f0000b3fb00008a46000000000000fd
:104fe000f0410000ae470000e13e00006d0e000001
:104ff000a447000000000000f0410000295c000010
:105000002f400000d7bb0000a844000000000000b3
:10501000c8410000713d00004a400000d7930000e5
:1050200092450000814b0000125300000000000078
:10503000000000000000000000000000c03a000076
:1050400049480000346800002b4000009b580000d5
:10505000c445000000780000864500007aa50000e5
:10506000284000009b5800004446000000800000db
:10507000d44300001f850000cb3f0000d57800001e
:105080006140000000000000ee420000d578000002
:10509000b94000004e620000d24100000000000054
:1050a000da420000f2d200003d400000022b000076
:1050b000c544000000000000ba4200008fc200009a
:1050c00025400000764200009346000000000000ea
:1050d0009042000085eb0000913f0000296c000029
:1050e000044400000000000088420000295c000029
:1050f000ef3f000033130000c74300000000000032
:1051000086420000b81e00008d400000661c0000b2
:10511000ac450000000000006c420000c3f5000038
:1051200038400000853d0000a3450000000000005d
:105130006042000048e100000a400000856b00006a
:105140001b4300000000000034420000cdcc0000f2
:10515000cc3e000033130000474400000000000074
:1051600010420000d7a30000f03e000048e100001c
:105170004144000000000000e84100009a9900004e
:10518000294000001f850000e340000000000000ef
:10519000a841000048e10000aa40000048e10000ea
:1051a0007a3f00000000000098410000cdcc0000d4
:1051b000ec3f00003d760000ab4500000000000021
:1051c000984100003d0a00009f400000cd4c0000c7
:1051d000554300000000000088410000295c0000e9
:1051e0003f400000ae1f0000c4450000000000006a
:1051f000804100008fc20000f53c0000f604000072
:105200001f45000000000000804100003d0a000032
:10521000b73f0000b8220000064500000000000073
:105220007041000048e100009a3f000052840000f5
:105230002b4600000000000040410000b81e0000a6
:1052400035400000a4800000da44000000000000a7
:1052500040410000d7a30000504000000a050000b4
:105260009f4500000000000040410000d7a300005f
:10527000a8400000664e00009544000000000000b9
:1052800040410000b81e00000540000000b00000d2
:10529000924500000000000030410000b81e0000f0
:1052a000453f00007b6400000a440000000000004d
:1052b0002041000066660000a63f0000cd7400009b
:1052c000c4450000000000002041000014ae0000b2
:1052d00087400000d7bb0000a84400000000000089
:1052e00010410000cdcc00002c400000e1ba0000cd
:1052f000724300000000000010410000e17a00004d
:10530000b440000014ee00006d44000000000000f6
:10531000004100009a990000a9400000ec0d000037
:105320001345000000000000c04000009a990000f2
:10533000294000000a77000013460000000000002a
:10534000c0400000a470000095400000d79300000a
:105350009245000000000000000000000000000076
:10536000000000000000000000000000000000003d
:10537000000000000000000000000000000000002d
:10538000000000000000000000000000000000001d
:10539000000000000000000000000000000000000d
:105620000000000000b700004e470000000000002e
:10563000000000000000000000000000004000002a
:1056400008460000933a0000893f00009b58000084
:10565000c4450000008000009a430000b6f300003b
:105660005d3f00009c580000444600000000000020
:10567000d8410000cdcc00004c3d0000ae470000fa
:105680006140000000000000804100007b14000029
:10569000a640000066660000d24100000000000045
:1056a000804100001f8500006b400000856b0000fa
:1056b0001b43000000000000204100005c8f000040
:1056c000423f0000764200009346000000000000c8
:1056d000104100000ad7000003400000e3c80000aa
:1056e0009747000000000000e0400000e17a000061
:1056f000543f000048e10000414400000000000069
:10570000a0400000b81e000095400000e12a000003
:10571000c544000000000000804000000ad70000df
:10572000833f00001f850000e340000000000000f0
:1057300080400000f62800005c4000001f290000a7
:10574000ae4500000000000040400000e17a00008b
:10575000a440000033130000474400000000000094
:10576000404000009a990000c1400000661c000003
:10577000ac4500000000000040400000ec5100007b
:10578000983f0000e1ba00007243000000000000f2
:10579000404000000ad70000c3400000296c000010
:1057a00004440000000000004040000052b8000027
:1057b0009e3e000033130000c743000000000000bd
:1057c0004040000085eb0000114000007b640000b9
:1057d0000a4400000000000000400000f62800001d
:1057e0008c400000853d0000a34500000000000043
:1057f00000400000000000007040000048e1000090
:105800007a3f0000000000000000000000000000df
:105810000000000000000000000000000000000088
:105820000000000000000000000000000000000078
:105830000000000000000000000000000000000068
:105840000000000000000000000000000000000058
:105c20000000000000800000904300000c02000013
:105c3000bb4000009c580000c4450000000000006c
:105c40000c42000000000000000000000000000006
:105c500000000000000000008841000014ae0000b9
:105c6000af4000009a5800004446000000000000c9
:105c70004040000066660000a6400000856b000002
:105c80001b43000000000000803f00003d0a0000b0
:105c900097400000ae470000614000000000000097
:105ca000803f00009a990000a94000007642000061
:105cb0009346000000000000803f00003d0a000005
:105cc000bf400000e1ba0000724300000000000085
:105cd00000000000000000000000000000000000c4
:105ce00000000000000000000000000000000000b4
:105cf00000000000000000000000000000000000a4
:105d00000000000000000000000000000000000093
:106220000000000000000000e442000087160000ab
:1062300049400000000000000000000000000000d5
:1062400000410000f628000084400000a45800002f
:10625000c445000000000000803f00008fc2000025
:10626000754000009a5800004446000000000000fd
:10627000000000000000000000000000000000001e
:10628000000000000000000000000000000000000e
:1062900000000000000000000000000000000000fe
:1062a00000000000000000000000000000000000ee
:106820000000000000000000803f0000c3f50000f1
